{
  "contractName": "Campaign",
  "abi": [
    {
      "inputs": [
        {
          "internalType": "uint256",
          "name": "minimum",
          "type": "uint256"
        },
        {
          "internalType": "address",
          "name": "creator",
          "type": "address"
        }
      ],
      "payable": false,
      "stateMutability": "nonpayable",
      "type": "constructor"
    },
    {
      "constant": true,
      "inputs": [
        {
          "internalType": "address",
          "name": "",
          "type": "address"
        }
      ],
      "name": "approvers",
      "outputs": [
        {
          "internalType": "bool",
          "name": "",
          "type": "bool"
        }
      ],
      "payable": false,
      "stateMutability": "view",
      "type": "function"
    },
    {
      "constant": true,
      "inputs": [],
      "name": "approversCount",
      "outputs": [
        {
          "internalType": "uint256",
          "name": "",
          "type": "uint256"
        }
      ],
      "payable": false,
      "stateMutability": "view",
      "type": "function"
    },
    {
      "constant": true,
      "inputs": [],
      "name": "manager",
      "outputs": [
        {
          "internalType": "address",
          "name": "",
          "type": "address"
        }
      ],
      "payable": false,
      "stateMutability": "view",
      "type": "function"
    },
    {
      "constant": true,
      "inputs": [],
      "name": "minimumamount",
      "outputs": [
        {
          "internalType": "uint256",
          "name": "",
          "type": "uint256"
        }
      ],
      "payable": false,
      "stateMutability": "view",
      "type": "function"
    },
    {
      "constant": true,
      "inputs": [
        {
          "internalType": "uint256",
          "name": "",
          "type": "uint256"
        }
      ],
      "name": "requests",
      "outputs": [
        {
          "internalType": "string",
          "name": "description",
          "type": "string"
        },
        {
          "internalType": "uint256",
          "name": "value",
          "type": "uint256"
        },
        {
          "internalType": "address payable",
          "name": "recipient",
          "type": "address"
        },
        {
          "internalType": "bool",
          "name": "complete",
          "type": "bool"
        },
        {
          "internalType": "uint256",
          "name": "approvalCount",
          "type": "uint256"
        }
      ],
      "payable": false,
      "stateMutability": "view",
      "type": "function"
    },
    {
      "constant": false,
      "inputs": [],
      "name": "contribute",
      "outputs": [],
      "payable": true,
      "stateMutability": "payable",
      "type": "function"
    },
    {
      "constant": false,
      "inputs": [
        {
          "internalType": "string",
          "name": "description",
          "type": "string"
        },
        {
          "internalType": "uint256",
          "name": "value",
          "type": "uint256"
        },
        {
          "internalType": "address payable",
          "name": "recipient",
          "type": "address"
        }
      ],
      "name": "createRequests",
      "outputs": [],
      "payable": false,
      "stateMutability": "nonpayable",
      "type": "function"
    },
    {
      "constant": false,
      "inputs": [
        {
          "internalType": "uint256",
          "name": "index",
          "type": "uint256"
        }
      ],
      "name": "approveRequest",
      "outputs": [],
      "payable": false,
      "stateMutability": "nonpayable",
      "type": "function"
    },
    {
      "constant": false,
      "inputs": [
        {
          "internalType": "uint256",
          "name": "index",
          "type": "uint256"
        }
      ],
      "name": "finalizeRequest",
      "outputs": [],
      "payable": false,
      "stateMutability": "nonpayable",
      "type": "function"
    },
    {
      "constant": true,
      "inputs": [],
      "name": "getSummary",
      "outputs": [
        {
          "internalType": "uint256",
          "name": "",
          "type": "uint256"
        },
        {
          "internalType": "uint256",
          "name": "",
          "type": "uint256"
        },
        {
          "internalType": "uint256",
          "name": "",
          "type": "uint256"
        },
        {
          "internalType": "uint256",
          "name": "",
          "type": "uint256"
        },
        {
          "internalType": "address",
          "name": "",
          "type": "address"
        }
      ],
      "payable": false,
      "stateMutability": "view",
      "type": "function"
    },
    {
      "constant": true,
      "inputs": [],
      "name": "getRequestsCount",
      "outputs": [
        {
          "internalType": "uint256",
          "name": "",
          "type": "uint256"
        }
      ],
      "payable": false,
      "stateMutability": "view",
      "type": "function"
    }
  ],
  "bytecode": "0x608060405234801561001057600080fd5b50604051610d0a380380610d0a8339818101604052604081101561003357600080fd5b810190808051906020019092919080519060200190929190505050806000806101000a81548173ffffffffffffffffffffffffffffffffffffffff021916908373ffffffffffffffffffffffffffffffffffffffff1602179055508160028190555060006004819055505050610c5c806100ae6000396000f3fe60806040526004361061009c5760003560e01c8063481c6a7511610064578063481c6a75146102d557806381d12c581461032c57806382fde0931461042c578063d7bb99ba14610457578063d7d1bbdb14610461578063d9fbd2a91461049c5761009c565b806303441006146100a15780630a144391146100dc578063277c3da4146101455780633410452a146102375780634051ddac14610262575b600080fd5b3480156100ad57600080fd5b506100da600480360360208110156100c457600080fd5b81019080803590602001909291905050506104c7565b005b3480156100e857600080fd5b5061012b600480360360208110156100ff57600080fd5b81019080803573ffffffffffffffffffffffffffffffffffffffff169060200190929190505050610607565b604051808215151515815260200191505060405180910390f35b34801561015157600080fd5b506102356004803603606081101561016857600080fd5b810190808035906020019064010000000081111561018557600080fd5b82018360208201111561019757600080fd5b803590602001918460018302840111640100000000831117156101b957600080fd5b91908080601f016020809104026020016040519081016040528093929190818152602001838380828437600081840152601f19601f82011690508083019250505050505050919291929080359060200190929190803573ffffffffffffffffffffffffffffffffffffffff169060200190929190505050610627565b005b34801561024357600080fd5b5061024c61079a565b6040518082815260200191505060405180910390f35b34801561026e57600080fd5b506102776107a7565b604051808681526020018581526020018481526020018381526020018273ffffffffffffffffffffffffffffffffffffffff1673ffffffffffffffffffffffffffffffffffffffff1681526020019550505050505060405180910390f35b3480156102e157600080fd5b506102ea6107ef565b604051808273ffffffffffffffffffffffffffffffffffffffff1673ffffffffffffffffffffffffffffffffffffffff16815260200191505060405180910390f35b34801561033857600080fd5b506103656004803603602081101561034f57600080fd5b8101908080359060200190929190505050610814565b60405180806020018681526020018573ffffffffffffffffffffffffffffffffffffffff1673ffffffffffffffffffffffffffffffffffffffff16815260200184151515158152602001838152602001828103825287818151815260200191508051906020019080838360005b838110156103ed5780820151818401526020810190506103d2565b50505050905090810190601f16801561041a5780820380516001836020036101000a031916815260200191505b50965050505050505060405180910390f35b34801561043857600080fd5b5061044161091c565b6040518082815260200191505060405180910390f35b61045f610922565b005b34801561046d57600080fd5b5061049a6004803603602081101561048457600080fd5b81019080803590602001909291905050506109f5565b005b3480156104a857600080fd5b506104b1610b35565b6040518082815260200191505060405180910390f35b6000809054906101000a900473ffffffffffffffffffffffffffffffffffffffff1673ffffffffffffffffffffffffffffffffffffffff163373ffffffffffffffffffffffffffffffffffffffff161461052057600080fd5b60006003828154811061052f57fe5b906000526020600020906005020190508060020160149054906101000a900460ff161561055b57600080fd5b60026004548161056757fe5b0481600301541161057757600080fd5b8060020160009054906101000a900473ffffffffffffffffffffffffffffffffffffffff1673ffffffffffffffffffffffffffffffffffffffff166108fc82600101549081150290604051600060405180830381858888f193505050501580156105e5573d6000803e3d6000fd5b5060018160020160146101000a81548160ff0219169083151502179055505050565b60016020528060005260406000206000915054906101000a900460ff1681565b6000809054906101000a900473ffffffffffffffffffffffffffffffffffffffff1673ffffffffffffffffffffffffffffffffffffffff163373ffffffffffffffffffffffffffffffffffffffff161461068057600080fd5b610688610b3b565b6040518060a001604052808581526020018481526020018373ffffffffffffffffffffffffffffffffffffffff16815260200160001515815260200160008152509050600381908060018154018082558091505090600182039060005260206000209060050201600090919290919091506000820151816000019080519060200190610715929190610b82565b506020820151816001015560408201518160020160006101000a81548173ffffffffffffffffffffffffffffffffffffffff021916908373ffffffffffffffffffffffffffffffffffffffff16021790555060608201518160020160146101000a81548160ff0219169083151502179055506080820151816003015550505050505050565b6000600380549050905090565b6000806000806000600254476003805490506004546000809054906101000a900473ffffffffffffffffffffffffffffffffffffffff16945094509450945094509091929394565b6000809054906101000a900473ffffffffffffffffffffffffffffffffffffffff1681565b6003818154811061082157fe5b9060005260206000209060050201600091509050806000018054600181600116156101000203166002900480601f0160208091040260200160405190810160405280929190818152602001828054600181600116156101000203166002900480156108cd5780601f106108a2576101008083540402835291602001916108cd565b820191906000526020600020905b8154815290600101906020018083116108b057829003601f168201915b5050505050908060010154908060020160009054906101000a900473ffffffffffffffffffffffffffffffffffffffff16908060020160149054906101000a900460ff16908060030154905085565b60045481565b600254341161093057600080fd5b60001515600160003373ffffffffffffffffffffffffffffffffffffffff1673ffffffffffffffffffffffffffffffffffffffff16815260200190815260200160002060009054906101000a900460ff16151514156109f35760018060003373ffffffffffffffffffffffffffffffffffffffff1673ffffffffffffffffffffffffffffffffffffffff16815260200190815260200160002060006101000a81548160ff0219169083151502179055506004600081548092919060010191905055505b565b600060038281548110610a0457fe5b90600052602060002090600502019050600160003373ffffffffffffffffffffffffffffffffffffffff1673ffffffffffffffffffffffffffffffffffffffff16815260200190815260200160002060009054906101000a900460ff16610a6a57600080fd5b8060040160003373ffffffffffffffffffffffffffffffffffffffff1673ffffffffffffffffffffffffffffffffffffffff16815260200190815260200160002060009054906101000a900460ff1615610ac357600080fd5b806003016000815480929190600101919050555060018160040160003373ffffffffffffffffffffffffffffffffffffffff1673ffffffffffffffffffffffffffffffffffffffff16815260200190815260200160002060006101000a81548160ff0219169083151502179055505050565b60025481565b6040518060a001604052806060815260200160008152602001600073ffffffffffffffffffffffffffffffffffffffff168152602001600015158152602001600081525090565b828054600181600116156101000203166002900490600052602060002090601f016020900481019282601f10610bc357805160ff1916838001178555610bf1565b82800160010185558215610bf1579182015b82811115610bf0578251825591602001919060010190610bd5565b5b509050610bfe9190610c02565b5090565b610c2491905b80821115610c20576000816000905550600101610c08565b5090565b9056fea265627a7a723158205a665545a019663b295d01a518dba065d4735e709a342cc49da4ccb5f039469b64736f6c63430005100032",
  "source": "pragma solidity ^0.5.0;\r\n\r\ncontract Campaign{\r\n    \r\n    struct Request{\r\n        string description;\r\n        uint value;\r\n        address payable recipient;\r\n        bool complete;\r\n        uint approvalCount;\r\n        mapping(address => bool) approvals;\r\n    }\r\n    \r\n    address public manager;\r\n    mapping(address => bool) public approvers;\r\n    uint public minimumamount;\r\n    Request[] public requests;\r\n    uint public approversCount;\r\n    \r\n    modifier restricted(){\r\n        require(msg.sender == manager);\r\n        _;\r\n    }\r\n    \r\n    constructor(uint minimum,address creator)public{\r\n        manager  = creator;\r\n        minimumamount = minimum;\r\n        approversCount =0;\r\n    }\r\n    \r\n    function contribute ()public payable{\r\n        require(msg.value>minimumamount);\r\n        if(approvers[msg.sender] == false)\r\n        {\r\n            approvers[msg.sender] = true;\r\n            approversCount++;\r\n        }\r\n\r\n    }\r\n    \r\n    \r\n    //CONCEPT OF storage and memory\r\n    //used for 2 things\r\n    //1st\r\n    //storage - for variables that are avaible btw function calls eg manager approvers\r\n    //memeory - temporary variables like minimum\r\n    //2nd\r\n    //storage - used for creating a reference onject\r\n    //memory - used for creating a copy (video 11,12)\r\n    function createRequests(string memory description , uint value , address payable recipient)public restricted{\r\n    \r\n        Request memory newReq = Request({\r\n           description : description,\r\n           value : value,\r\n           recipient : recipient,\r\n           complete : false,\r\n           approvalCount : 0\r\n        });\r\n        \r\n        requests.push(newReq);\r\n    }\r\n    \r\n    //for approving the request by contributors\r\n    function approveRequest(uint index) public{\r\n        \r\n        Request storage rq = requests[index]; // a reference to the request at index - index\r\n        require(approvers[msg.sender]);\r\n        require(!rq.approvals[msg.sender]); //checking already voted or not\r\n        \r\n        rq.approvalCount++;\r\n        rq.approvals[msg.sender] = true;\r\n    }\r\n    \r\n    function finalizeRequest(uint index) public restricted{\r\n        Request storage rq = requests[index];\r\n        require(!rq.complete);\r\n        require(rq.approvalCount > approversCount/2);\r\n        \r\n        rq.recipient.transfer(rq.value);\r\n        rq.complete = true;\r\n    }\r\n\r\n    function getSummary() public view returns(uint,uint,uint,uint,address){\r\n        return (\r\n            minimumamount,\r\n            address(this).balance,\r\n            requests.length,\r\n            approversCount,\r\n            manager\r\n        );\r\n    }\r\n    \r\n    function getRequestsCount()public view returns(uint){\r\n        return requests.length;\r\n    }\r\n}\r\n",
  "sourcePath": "E:\\Blockchain_Dev\\crowdfunding_ethereum backend\\contracts\\Campaign.sol",
  "compiler": {
    "name": "solc",
    "version": "0.5.16+commit.9c3226ce.Emscripten.clang"
  },
  "schemaVersion": "3.2.3",
  "updatedAt": "2021-02-16T11:48:45.049Z",
  "devdoc": {
    "methods": {}
  },
  "userdoc": {
    "methods": {}
  }
}